:020000040000FA
:100000008316003086008312831601308500831228
:1000100006148610061114200610861406111B20E3
:1000200006108610061520200A308C00051827209F
:100030008C0B16280C200A308C008C0B1D281020ED
:100040000A308C00051841208C0B222808208D0ACC
:100050000D18861500000D1C861100008D1806165F
:1000600000008D1C061200000D19861600000D1DE3
:10007000861200008D19061700008D1D0613000062
:1000800010208D0A0D18861500000D1C8611000029
:100090008D18061600008D1C061200000D1986161C
:1000A00000000D1D861200008D19061700008D1D21
:0600B00006130000082009
:0400B60000340034DE
:00000001FF
